{
  "_format": "hh-sol-artifact-1",
  "contractName": "XKOVestingWallet",
  "sourceName": "contracts/finance/XKOVestingWallet.sol",
  "abi": [
    {
      "inputs": [
        {
          "internalType": "address",
          "name": "beneficiaryAddress",
          "type": "address"
        },
        {
          "internalType": "uint64",
          "name": "startTimestamp",
          "type": "uint64"
        },
        {
          "internalType": "uint64",
          "name": "durationSeconds",
          "type": "uint64"
        }
      ],
      "stateMutability": "payable",
      "type": "constructor"
    },
    {
      "anonymous": false,
      "inputs": [
        {
          "indexed": true,
          "internalType": "address",
          "name": "token",
          "type": "address"
        },
        {
          "indexed": false,
          "internalType": "uint256",
          "name": "amount",
          "type": "uint256"
        }
      ],
      "name": "ERC20Released",
      "type": "event"
    },
    {
      "anonymous": false,
      "inputs": [
        {
          "indexed": false,
          "internalType": "uint256",
          "name": "amount",
          "type": "uint256"
        }
      ],
      "name": "EtherReleased",
      "type": "event"
    },
    {
      "anonymous": false,
      "inputs": [
        {
          "indexed": true,
          "internalType": "bytes32",
          "name": "role",
          "type": "bytes32"
        },
        {
          "indexed": true,
          "internalType": "bytes32",
          "name": "previousAdminRole",
          "type": "bytes32"
        },
        {
          "indexed": true,
          "internalType": "bytes32",
          "name": "newAdminRole",
          "type": "bytes32"
        }
      ],
      "name": "RoleAdminChanged",
      "type": "event"
    },
    {
      "anonymous": false,
      "inputs": [
        {
          "indexed": true,
          "internalType": "bytes32",
          "name": "role",
          "type": "bytes32"
        },
        {
          "indexed": true,
          "internalType": "address",
          "name": "account",
          "type": "address"
        },
        {
          "indexed": true,
          "internalType": "address",
          "name": "sender",
          "type": "address"
        }
      ],
      "name": "RoleGranted",
      "type": "event"
    },
    {
      "anonymous": false,
      "inputs": [
        {
          "indexed": true,
          "internalType": "bytes32",
          "name": "role",
          "type": "bytes32"
        },
        {
          "indexed": true,
          "internalType": "address",
          "name": "account",
          "type": "address"
        },
        {
          "indexed": true,
          "internalType": "address",
          "name": "sender",
          "type": "address"
        }
      ],
      "name": "RoleRevoked",
      "type": "event"
    },
    {
      "inputs": [],
      "name": "DEFAULT_ADMIN_ROLE",
      "outputs": [
        {
          "internalType": "bytes32",
          "name": "",
          "type": "bytes32"
        }
      ],
      "stateMutability": "view",
      "type": "function"
    },
    {
      "inputs": [],
      "name": "WITHELISTER_ROLE",
      "outputs": [
        {
          "internalType": "bytes32",
          "name": "",
          "type": "bytes32"
        }
      ],
      "stateMutability": "view",
      "type": "function"
    },
    {
      "inputs": [
        {
          "internalType": "address",
          "name": "token",
          "type": "address"
        }
      ],
      "name": "addWhitelistedAddress",
      "outputs": [],
      "stateMutability": "nonpayable",
      "type": "function"
    },
    {
      "inputs": [],
      "name": "beneficiary",
      "outputs": [
        {
          "internalType": "address",
          "name": "",
          "type": "address"
        }
      ],
      "stateMutability": "view",
      "type": "function"
    },
    {
      "inputs": [],
      "name": "duration",
      "outputs": [
        {
          "internalType": "uint256",
          "name": "",
          "type": "uint256"
        }
      ],
      "stateMutability": "view",
      "type": "function"
    },
    {
      "inputs": [
        {
          "internalType": "bytes32",
          "name": "role",
          "type": "bytes32"
        }
      ],
      "name": "getRoleAdmin",
      "outputs": [
        {
          "internalType": "bytes32",
          "name": "",
          "type": "bytes32"
        }
      ],
      "stateMutability": "view",
      "type": "function"
    },
    {
      "inputs": [
        {
          "internalType": "bytes32",
          "name": "role",
          "type": "bytes32"
        },
        {
          "internalType": "address",
          "name": "account",
          "type": "address"
        }
      ],
      "name": "grantRole",
      "outputs": [],
      "stateMutability": "nonpayable",
      "type": "function"
    },
    {
      "inputs": [
        {
          "internalType": "bytes32",
          "name": "role",
          "type": "bytes32"
        },
        {
          "internalType": "address",
          "name": "account",
          "type": "address"
        }
      ],
      "name": "hasRole",
      "outputs": [
        {
          "internalType": "bool",
          "name": "",
          "type": "bool"
        }
      ],
      "stateMutability": "view",
      "type": "function"
    },
    {
      "inputs": [
        {
          "internalType": "address",
          "name": "token",
          "type": "address"
        }
      ],
      "name": "isRevocable",
      "outputs": [
        {
          "internalType": "bool",
          "name": "",
          "type": "bool"
        }
      ],
      "stateMutability": "view",
      "type": "function"
    },
    {
      "inputs": [
        {
          "internalType": "address",
          "name": "token",
          "type": "address"
        }
      ],
      "name": "isWhitelisted",
      "outputs": [
        {
          "internalType": "bool",
          "name": "",
          "type": "bool"
        }
      ],
      "stateMutability": "view",
      "type": "function"
    },
    {
      "inputs": [
        {
          "internalType": "address",
          "name": "token",
          "type": "address"
        }
      ],
      "name": "releasable",
      "outputs": [
        {
          "internalType": "uint256",
          "name": "",
          "type": "uint256"
        }
      ],
      "stateMutability": "view",
      "type": "function"
    },
    {
      "inputs": [],
      "name": "releasable",
      "outputs": [
        {
          "internalType": "uint256",
          "name": "",
          "type": "uint256"
        }
      ],
      "stateMutability": "view",
      "type": "function"
    },
    {
      "inputs": [
        {
          "internalType": "address",
          "name": "token",
          "type": "address"
        }
      ],
      "name": "release",
      "outputs": [],
      "stateMutability": "nonpayable",
      "type": "function"
    },
    {
      "inputs": [],
      "name": "release",
      "outputs": [],
      "stateMutability": "nonpayable",
      "type": "function"
    },
    {
      "inputs": [],
      "name": "released",
      "outputs": [
        {
          "internalType": "uint256",
          "name": "",
          "type": "uint256"
        }
      ],
      "stateMutability": "view",
      "type": "function"
    },
    {
      "inputs": [
        {
          "internalType": "address",
          "name": "token",
          "type": "address"
        }
      ],
      "name": "released",
      "outputs": [
        {
          "internalType": "uint256",
          "name": "",
          "type": "uint256"
        }
      ],
      "stateMutability": "view",
      "type": "function"
    },
    {
      "inputs": [
        {
          "internalType": "address",
          "name": "token",
          "type": "address"
        }
      ],
      "name": "removeWhitelistedAddress",
      "outputs": [],
      "stateMutability": "nonpayable",
      "type": "function"
    },
    {
      "inputs": [
        {
          "internalType": "address",
          "name": "token",
          "type": "address"
        }
      ],
      "name": "renounceRevocation",
      "outputs": [],
      "stateMutability": "nonpayable",
      "type": "function"
    },
    {
      "inputs": [
        {
          "internalType": "bytes32",
          "name": "role",
          "type": "bytes32"
        },
        {
          "internalType": "address",
          "name": "account",
          "type": "address"
        }
      ],
      "name": "renounceRole",
      "outputs": [],
      "stateMutability": "nonpayable",
      "type": "function"
    },
    {
      "inputs": [
        {
          "internalType": "address",
          "name": "token",
          "type": "address"
        }
      ],
      "name": "revoke",
      "outputs": [],
      "stateMutability": "nonpayable",
      "type": "function"
    },
    {
      "inputs": [
        {
          "internalType": "bytes32",
          "name": "role",
          "type": "bytes32"
        },
        {
          "internalType": "address",
          "name": "account",
          "type": "address"
        }
      ],
      "name": "revokeRole",
      "outputs": [],
      "stateMutability": "nonpayable",
      "type": "function"
    },
    {
      "inputs": [],
      "name": "start",
      "outputs": [
        {
          "internalType": "uint256",
          "name": "",
          "type": "uint256"
        }
      ],
      "stateMutability": "view",
      "type": "function"
    },
    {
      "inputs": [
        {
          "internalType": "bytes4",
          "name": "interfaceId",
          "type": "bytes4"
        }
      ],
      "name": "supportsInterface",
      "outputs": [
        {
          "internalType": "bool",
          "name": "",
          "type": "bool"
        }
      ],
      "stateMutability": "view",
      "type": "function"
    },
    {
      "inputs": [
        {
          "internalType": "uint64",
          "name": "timestamp",
          "type": "uint64"
        }
      ],
      "name": "vestedAmount",
      "outputs": [
        {
          "internalType": "uint256",
          "name": "",
          "type": "uint256"
        }
      ],
      "stateMutability": "view",
      "type": "function"
    },
    {
      "inputs": [
        {
          "internalType": "address",
          "name": "token",
          "type": "address"
        },
        {
          "internalType": "uint64",
          "name": "timestamp",
          "type": "uint64"
        }
      ],
      "name": "vestedAmount",
      "outputs": [
        {
          "internalType": "uint256",
          "name": "",
          "type": "uint256"
        }
      ],
      "stateMutability": "view",
      "type": "function"
    },
    {
      "stateMutability": "payable",
      "type": "receive"
    }
  ],
  "bytecode": "0x60e060405260405162001cd438038062001cd48339810160408190526200002691620001ca565b8282826001600160a01b038316620000975760405162461bcd60e51b815260206004820152602a60248201527f56657374696e6757616c6c65743a2062656e6566696369617279206973207a65604482015269726f206164647265737360b01b606482015260840160405180910390fd5b6001600160a01b039092166080526001600160401b0390811660a0521660c052620000e37f10e81af019c56a4791176f27c4e011c0f8bf3a8f5b0c8ef16b3e64456d5a894533620000f9565b620000f0600033620000f9565b50505062000221565b62000105828262000109565b5050565b60008281526002602090815260408083206001600160a01b038516845290915290205460ff16620001055760008281526002602090815260408083206001600160a01b03851684529091529020805460ff19166001179055620001693390565b6001600160a01b0316816001600160a01b0316837f2f8788117e7eff1d82e926ec794901d17c78024a50270940304540a733656f0d60405160405180910390a45050565b80516001600160401b0381168114620001c557600080fd5b919050565b600080600060608486031215620001e057600080fd5b83516001600160a01b0381168114620001f857600080fd5b92506200020860208501620001ad565b91506200021860408501620001ad565b90509250925092565b60805160a05160c051611a676200026d600039600081816101e801528181610eb10152610f0601526000610e280152600081816102e201528181610d230152610fe70152611a676000f3fe60806040526004361061016a5760003560e01c8063810ec23b116100d1578063a217fddf1161008a578063be9a655511610064578063be9a65551461047f578063d46f6a2c14610494578063d547741f146104cd578063fbccedae146104ed57600080fd5b8063a217fddf14610416578063a3f8eace1461042b578063ba1b9a561461044b57600080fd5b8063810ec23b1461036c57806386d1a69f1461038c57806391d14854146103a157806396132521146103c15780639852595c146103d65780639d9daea1146103f657600080fd5b80632f2ff15d116101235780632f2ff15d1461028857806336568abe146102a857806338af3eed146102c85780633af32abf1461030c578063530cd5ab1461032c57806374a8f1031461034c57600080fd5b806301ffc9a7146101765780630a17b06b146101ab5780630fb5a6b4146101d95780631916558714610216578063248a9ca31461023857806329975b431461026857600080fd5b3661017157005b600080fd5b34801561018257600080fd5b50610196610191366004611709565b610502565b60405190151581526020015b60405180910390f35b3480156101b757600080fd5b506101cb6101c6366004611750565b610539565b6040519081526020016101a2565b3480156101e557600080fd5b507f000000000000000000000000000000000000000000000000000000000000000067ffffffffffffffff166101cb565b34801561022257600080fd5b50610236610231366004611782565b610557565b005b34801561024457600080fd5b506101cb61025336600461179d565b60009081526002602052604090206001015490565b34801561027457600080fd5b50610236610283366004611782565b610659565b34801561029457600080fd5b506102366102a33660046117b6565b6109dc565b3480156102b457600080fd5b506102366102c33660046117b6565b610a06565b3480156102d457600080fd5b506040516001600160a01b037f00000000000000000000000000000000000000000000000000000000000000001681526020016101a2565b34801561031857600080fd5b50610196610327366004611782565b610a80565b34801561033857600080fd5b50610236610347366004611782565b610a9e565b34801561035857600080fd5b50610236610367366004611782565b610acb565b34801561037857600080fd5b506101cb6103873660046117e2565b610c8f565b34801561039857600080fd5b50610236610cc9565b3480156103ad57600080fd5b506101966103bc3660046117b6565b610d4b565b3480156103cd57600080fd5b506000546101cb565b3480156103e257600080fd5b506101cb6103f1366004611782565b610d76565b34801561040257600080fd5b50610236610411366004611782565b610dbf565b34801561042257600080fd5b506101cb600081565b34801561043757600080fd5b506101cb610446366004611782565b610dec565b34801561045757600080fd5b506101cb7f10e81af019c56a4791176f27c4e011c0f8bf3a8f5b0c8ef16b3e64456d5a894581565b34801561048b57600080fd5b506101cb610e1d565b3480156104a057600080fd5b506101966104af366004611782565b6001600160a01b031660009081526004602052604090205460ff1690565b3480156104d957600080fd5b506102366104e83660046117b6565b610e4b565b3480156104f957600080fd5b506101cb610e70565b60006001600160e01b03198216637965db0b60e01b148061053357506301ffc9a760e01b6001600160e01b03198316145b92915050565b600061053361054760005490565b6105519047611822565b83610e8c565b8061056181610a80565b6105865760405162461bcd60e51b815260040161057d90611835565b60405180910390fd5b6040516370a0823160e01b81523060048201526000906001600160a01b038416906370a0823190602401602060405180830381865afa1580156105cd573d6000803e3d6000fd5b505050506040513d601f19601f820116820180604052508101906105f1919061187f565b1161064c5760405162461bcd60e51b815260206004820152602560248201527f584b4f56657374696e6757616c6c65743a206e6f20746f6b656e20746f2072656044820152646c6561736560d81b606482015260840161057d565b61065582610f66565b5050565b60006106648161100c565b60408051600481526024810182526020810180516001600160e01b03166306fdde0360e01b179052905183916000916001600160a01b038416916106a7916118bc565b600060405180830381855afa9150503d80600081146106e2576040519150601f19603f3d011682016040523d82523d6000602084013e6106e7565b606091505b505060408051600481526024810182526020810180516001600160e01b03166395d89b4160e01b17905290519192506000916001600160a01b0385169161072d916118bc565b600060405180830381855afa9150503d8060008114610768576040519150601f19603f3d011682016040523d82523d6000602084013e61076d565b606091505b505060408051600481526024810182526020810180516001600160e01b031663313ce56760e01b17905290519192506000916001600160a01b038616916107b3916118bc565b600060405180830381855afa9150503d80600081146107ee576040519150601f19603f3d011682016040523d82523d6000602084013e6107f3565b606091505b505060408051600481526024810182526020810180516001600160e01b03166318160ddd60e01b17905290519192506000916001600160a01b03871691610839916118bc565b600060405180830381855afa9150503d8060008114610874576040519150601f19603f3d011682016040523d82523d6000602084013e610879565b606091505b5050604080516000602480830182905283518084039091018152604490920183526020820180516001600160e01b03166370a0823160e01b179052915192935090916001600160a01b038816916108cf916118bc565b600060405180830381855afa9150503d806000811461090a576040519150601f19603f3d011682016040523d82523d6000602084013e61090f565b606091505b50509050600085801561091f5750845b80156109285750835b80156109315750825b801561093a5750815b9050806109955760405162461bcd60e51b8152602060048201526024808201527f584b4f56657374696e6757616c6c65743a20746f6b656e206973206e6f7420456044820152630524332360e41b606482015260840161057d565b5050506001600160a01b039095166000908152600460209081526040808320805460ff19908116600190811790925560039093529220805490911690911790555050505050565b6000828152600260205260409020600101546109f78161100c565b610a018383611016565b505050565b6001600160a01b0381163314610a765760405162461bcd60e51b815260206004820152602f60248201527f416363657373436f6e74726f6c3a2063616e206f6e6c792072656e6f756e636560448201526e103937b632b9903337b91039b2b63360891b606482015260840161057d565b610655828261109c565b6001600160a01b031660009081526003602052604090205460ff1690565b6000610aa98161100c565b506001600160a01b03166000908152600360205260409020805460ff19169055565b6000610ad68161100c565b6001600160a01b03821660009081526004602052604090205460ff16610b4f5760405162461bcd60e51b815260206004820152602860248201527f584b4f56657374696e6757616c6c65743a20746f6b656e206973206e6f74207260448201526765766f6361626c6560c01b606482015260840161057d565b6040516370a0823160e01b81523060048201526000906001600160a01b038416906370a0823190602401602060405180830381865afa158015610b96573d6000803e3d6000fd5b505050506040513d601f19601f82011682018060405250810190610bba919061187f565b905060008111610c185760405162461bcd60e51b8152602060048201526024808201527f584b4f56657374696e6757616c6c65743a206e6f20746f6b656e20746f207265604482015263766f6b6560e01b606482015260840161057d565b60405163a9059cbb60e01b8152336004820152602481018290526001600160a01b0384169063a9059cbb906044016020604051808303816000875af1158015610c65573d6000803e3d6000fd5b505050506040513d601f19601f82011682018060405250810190610c8991906118d8565b50505050565b600082610c9b81610a80565b610cb75760405162461bcd60e51b815260040161057d90611835565b610cc18484611103565b949350505050565b6000610cd3610e70565b905080600080828254610ce69190611822565b90915550506040518181527fda9d4e5f101b8b9b1c5b76d0c5a9f7923571acfc02376aa076b75a8c080c956b9060200160405180910390a1610d487f000000000000000000000000000000000000000000000000000000000000000082611183565b50565b60009182526002602090815260408084206001600160a01b0393909316845291905290205460ff1690565b600081610d8281610a80565b610d9e5760405162461bcd60e51b815260040161057d90611835565b6001600160a01b0383166000908152600160205260409020545b9392505050565b6000610dca8161100c565b506001600160a01b03166000908152600460205260409020805460ff19169055565b600081610df881610a80565b610e145760405162461bcd60e51b815260040161057d90611835565b610db88361129c565b67ffffffffffffffff7f00000000000000000000000000000000000000000000000000000000000000001690565b600082815260026020526040902060010154610e668161100c565b610a01838361109c565b60008054610e7d42610539565b610e8791906118fa565b905090565b6000610e96610e1d565b8267ffffffffffffffff161015610eaf57506000610533565b7f000000000000000000000000000000000000000000000000000000000000000067ffffffffffffffff16610ee2610e1d565b610eec9190611822565b8267ffffffffffffffff161115610f04575081610533565b7f000000000000000000000000000000000000000000000000000000000000000067ffffffffffffffff16610f37610e1d565b610f4b9067ffffffffffffffff85166118fa565b610f55908561190d565b610f5f9190611924565b9050610533565b6000610f7182610dec565b6001600160a01b038316600090815260016020526040812080549293508392909190610f9e908490611822565b90915550506040518181526001600160a01b038316907fc0e523490dd523c33b1878c9eb14ff46991e3f5b2cd33710918618f2a39cba1b9060200160405180910390a2610655827f0000000000000000000000000000000000000000000000000000000000000000836112bb565b610d48813361130d565b6110208282610d4b565b6106555760008281526002602090815260408083206001600160a01b03851684529091529020805460ff191660011790556110583390565b6001600160a01b0316816001600160a01b0316837f2f8788117e7eff1d82e926ec794901d17c78024a50270940304540a733656f0d60405160405180910390a45050565b6110a68282610d4b565b156106555760008281526002602090815260408083206001600160a01b0385168085529252808320805460ff1916905551339285917ff6391f5c32d9c69d2a47ea670b442974b53935d1edc7fd64eb21e047a839171b9190a45050565b6000610db861111184610d76565b6040516370a0823160e01b81523060048201526001600160a01b038616906370a0823190602401602060405180830381865afa158015611155573d6000803e3d6000fd5b505050506040513d601f19601f82011682018060405250810190611179919061187f565b6105519190611822565b804710156111d35760405162461bcd60e51b815260206004820152601d60248201527f416464726573733a20696e73756666696369656e742062616c616e6365000000604482015260640161057d565b6000826001600160a01b03168260405160006040518083038185875af1925050503d8060008114611220576040519150601f19603f3d011682016040523d82523d6000602084013e611225565b606091505b5050905080610a015760405162461bcd60e51b815260206004820152603a60248201527f416464726573733a20756e61626c6520746f2073656e642076616c75652c207260448201527f6563697069656e74206d61792068617665207265766572746564000000000000606482015260840161057d565b60006112a782610d76565b6112b18342610c8f565b61053391906118fa565b604080516001600160a01b038416602482015260448082018490528251808303909101815260649091019091526020810180516001600160e01b031663a9059cbb60e01b179052610a01908490611366565b6113178282610d4b565b6106555761132481611438565b61132f83602061144a565b604051602001611340929190611946565b60408051601f198184030181529082905262461bcd60e51b825261057d916004016119bb565b60006113bb826040518060400160405280602081526020017f5361666545524332303a206c6f772d6c6576656c2063616c6c206661696c6564815250856001600160a01b03166115e69092919063ffffffff16565b805190915015610a0157808060200190518101906113d991906118d8565b610a015760405162461bcd60e51b815260206004820152602a60248201527f5361666545524332303a204552433230206f7065726174696f6e20646964206e6044820152691bdd081cdd58d8d9595960b21b606482015260840161057d565b60606105336001600160a01b03831660145b6060600061145983600261190d565b611464906002611822565b67ffffffffffffffff81111561147c5761147c6119ee565b6040519080825280601f01601f1916602001820160405280156114a6576020820181803683370190505b509050600360fc1b816000815181106114c1576114c1611a04565b60200101906001600160f81b031916908160001a905350600f60fb1b816001815181106114f0576114f0611a04565b60200101906001600160f81b031916908160001a905350600061151484600261190d565b61151f906001611822565b90505b6001811115611597576f181899199a1a9b1b9c1cb0b131b232b360811b85600f166010811061155357611553611a04565b1a60f81b82828151811061156957611569611a04565b60200101906001600160f81b031916908160001a90535060049490941c9361159081611a1a565b9050611522565b508315610db85760405162461bcd60e51b815260206004820181905260248201527f537472696e67733a20686578206c656e67746820696e73756666696369656e74604482015260640161057d565b6060610cc1848460008585600080866001600160a01b0316858760405161160d91906118bc565b60006040518083038185875af1925050503d806000811461164a576040519150601f19603f3d011682016040523d82523d6000602084013e61164f565b606091505b50915091506116608783838761166b565b979650505050505050565b606083156116da5782516000036116d3576001600160a01b0385163b6116d35760405162461bcd60e51b815260206004820152601d60248201527f416464726573733a2063616c6c20746f206e6f6e2d636f6e7472616374000000604482015260640161057d565b5081610cc1565b610cc183838151156116ef5781518083602001fd5b8060405162461bcd60e51b815260040161057d91906119bb565b60006020828403121561171b57600080fd5b81356001600160e01b031981168114610db857600080fd5b803567ffffffffffffffff8116811461174b57600080fd5b919050565b60006020828403121561176257600080fd5b610db882611733565b80356001600160a01b038116811461174b57600080fd5b60006020828403121561179457600080fd5b610db88261176b565b6000602082840312156117af57600080fd5b5035919050565b600080604083850312156117c957600080fd5b823591506117d96020840161176b565b90509250929050565b600080604083850312156117f557600080fd5b6117fe8361176b565b91506117d960208401611733565b634e487b7160e01b600052601160045260246000fd5b808201808211156105335761053361180c565b6020808252602a908201527f584b4f56657374696e6757616c6c65743a20746f6b656e206973206e6f7420776040820152691a1a5d195b1a5cdd195960b21b606082015260800190565b60006020828403121561189157600080fd5b5051919050565b60005b838110156118b357818101518382015260200161189b565b50506000910152565b600082516118ce818460208701611898565b9190910192915050565b6000602082840312156118ea57600080fd5b81518015158114610db857600080fd5b818103818111156105335761053361180c565b80820281158282048414176105335761053361180c565b60008261194157634e487b7160e01b600052601260045260246000fd5b500490565b7f416363657373436f6e74726f6c3a206163636f756e742000000000000000000081526000835161197e816017850160208801611898565b7001034b99036b4b9b9b4b733903937b6329607d1b60179184019182015283516119af816028840160208801611898565b01602801949350505050565b60208152600082518060208401526119da816040850160208701611898565b601f01601f19169190910160400192915050565b634e487b7160e01b600052604160045260246000fd5b634e487b7160e01b600052603260045260246000fd5b600081611a2957611a2961180c565b50600019019056fea264697066735822122001aba924ddefd361c272ae89152dfcb62b16d3102467b1358c9d6e9fef64919264736f6c63430008110033",
  "linkReferences": {},
  "deployedLinkReferences": {}
}